{"project/contracts/EncryptedSimpleVotingSimplified.sol":{"EncryptedSimpleVotingSimplified":{"abi":[{"inputs":[{"internalType":"string","name":"_description","type":"string"},{"internalType":"uint256","name":"_durationInMinutes","type":"uint256"}],"stateMutability":"nonpayable","type":"constructor"},{"anonymous":false,"inputs":[],"name":"DecryptionRequested","type":"event"},{"anonymous":false,"inputs":[{"indexed":false,"internalType":"uint32","name":"yesVotes","type":"uint32"},{"indexed":false,"internalType":"uint32","name":"noVotes","type":"uint32"}],"name":"ResultsDecrypted","type":"event"},{"anonymous":false,"inputs":[{"indexed":true,"internalType":"address","name":"voter","type":"address"}],"name":"VoteCast","type":"event"},{"anonymous":false,"inputs":[{"indexed":false,"internalType":"string","name":"description","type":"string"},{"indexed":false,"internalType":"uint256","name":"deadline","type":"uint256"}],"name":"VotingCreated","type":"event"},{"inputs":[],"name":"decryptedNoVotes","outputs":[{"internalType":"uint32","name":"","type":"uint32"}],"stateMutability":"view","type":"function"},{"inputs":[],"name":"decryptedYesVotes","outputs":[{"internalType":"uint32","name":"","type":"uint32"}],"stateMutability":"view","type":"function"},{"inputs":[],"name":"description","outputs":[{"internalType":"string","name":"","type":"string"}],"stateMutability":"view","type":"function"},{"inputs":[],"name":"getResults","outputs":[{"internalType":"uint32","name":"","type":"uint32"},{"internalType":"uint32","name":"","type":"uint32"}],"stateMutability":"view","type":"function"},{"inputs":[],"name":"getStatus","outputs":[{"internalType":"enum EncryptedSimpleVotingSimplified.VotingStatus","name":"","type":"uint8"},{"internalType":"bool","name":"","type":"bool"},{"internalType":"bool","name":"","type":"bool"},{"internalType":"uint256","name":"","type":"uint256"}],"stateMutability":"view","type":"function"},{"inputs":[],"name":"getVoteCount","outputs":[{"internalType":"uint256","name":"","type":"uint256"}],"stateMutability":"view","type":"function"},{"inputs":[],"name":"getVotingInfo","outputs":[{"internalType":"string","name":"","type":"string"},{"internalType":"uint256","name":"","type":"uint256"},{"internalType":"bool","name":"","type":"bool"},{"internalType":"enum EncryptedSimpleVotingSimplified.VotingStatus","name":"","type":"uint8"}],"stateMutability":"view","type":"function"},{"inputs":[{"internalType":"address","name":"","type":"address"}],"name":"hasVoted","outputs":[{"internalType":"bool","name":"","type":"bool"}],"stateMutability":"view","type":"function"},{"inputs":[],"name":"isVotingActive","outputs":[{"internalType":"bool","name":"","type":"bool"}],"stateMutability":"view","type":"function"},{"inputs":[],"name":"owner","outputs":[{"internalType":"address","name":"","type":"address"}],"stateMutability":"view","type":"function"},{"inputs":[],"name":"requestVoteDecryption","outputs":[],"stateMutability":"nonpayable","type":"function"},{"inputs":[],"name":"status","outputs":[{"internalType":"enum EncryptedSimpleVotingSimplified.VotingStatus","name":"","type":"uint8"}],"stateMutability":"view","type":"function"},{"inputs":[],"name":"voteDeadline","outputs":[{"internalType":"uint256","name":"","type":"uint256"}],"stateMutability":"view","type":"function"},{"inputs":[{"internalType":"bytes32","name":"encryptedSupport","type":"bytes32"}],"name":"voteEncrypted","outputs":[],"stateMutability":"nonpayable","type":"function"},{"inputs":[{"internalType":"bool","name":"support","type":"bool"}],"name":"votePlaintext","outputs":[],"stateMutability":"nonpayable","type":"function"}],"evm":{"bytecode":{"linkReferences":{},"object":"608060405234801561000f575f5ffd5b50604051610eec380380610eec83398101604081905261002e916100c5565b600480546001600160a01b03191633179055600561004c83826101fd565b5061005881603c6102cb565b61006290426102e8565b60038190556002805460ff191690556040517fe7d3baf09e7e01af2690d8aaf441ae74c786ca8c873c36726c38eaf75e0dfec4916100a2918591906102fb565b60405180910390a15050610337565b634e487b7160e01b5f52604160045260245ffd5b5f5f604083850312156100d6575f5ffd5b82516001600160401b038111156100eb575f5ffd5b8301601f810185136100fb575f5ffd5b80516001600160401b03811115610114576101146100b1565b604051601f8201601f19908116603f011681016001600160401b0381118282101715610142576101426100b1565b604052818152828201602001871015610159575f5ffd5b8160208401602083015e5f60209282018301529401519395939450505050565b600181811c9082168061018d57607f821691505b6020821081036101ab57634e487b7160e01b5f52602260045260245ffd5b50919050565b601f8211156101f857805f5260205f20601f840160051c810160208510156101d65750805b601f840160051c820191505b818110156101f5575f81556001016101e2565b50505b505050565b81516001600160401b03811115610216576102166100b1565b61022a816102248454610179565b846101b1565b6020601f82116001811461025c575f83156102455750848201515b5f19600385901b1c1916600184901b1784556101f5565b5f84815260208120601f198516915b8281101561028b578785015182556020948501946001909201910161026b565b50848210156102a857868401515f19600387901b60f8161c191681555b50505050600190811b01905550565b634e487b7160e01b5f52601160045260245ffd5b80820281158282048414176102e2576102e26102b7565b92915050565b808201808211156102e2576102e26102b7565b604081525f83518060408401528060208601606085015e5f606082850101526060601f19601f8301168401019150508260208301529392505050565b610ba8806103445f395ff3fe608060405234801561000f575f5ffd5b50600436106100f0575f3560e01c80637284e416116100935780638da5cb5b116100635780638da5cb5b14610215578063b1cc9ca314610240578063e37bb8cb14610259578063e7b3387c1461026c575f5ffd5b80637284e416146101ac57806382dee8ad146101c157806383ca5a5b146101d457806389f1652d146101eb575f5ffd5b80634717f97c116100ce5780634717f97c1461015d57806347cf6f76146101825780634964b4b91461018a5780634e69d56014610194575f5ffd5b806309eef43e146100f4578063200d2ed21461012b578063359af4b214610145575b5f5ffd5b610116610102366004610979565b5f6020819052908152604090205460ff1681565b60405190151581526020015b60405180910390f35b6002546101389060ff1681565b60405161012291906109da565b61014d610274565b6040516101229493929190610a1c565b610165610328565b6040805163ffffffff938416815292909116602083015201610122565b6101166103b4565b6101926103e1565b005b61019c6104cf565b6040516101229493929190610a54565b6101b4610518565b6040516101229190610a7d565b6101926101cf366004610a8f565b6105a4565b6101dd60035481565b604051908152602001610122565b60025461020090610100900463ffffffff1681565b60405163ffffffff9091168152602001610122565b600454610228906001600160a01b031681565b6040516001600160a01b039091168152602001610122565b6002546102009065010000000000900463ffffffff1681565b610192610267366004610aa6565b6106fe565b6006546101dd565b60605f5f5f60056003546102866103b4565b600254835460ff90911690849061029c90610ac5565b80601f01602080910402602001604051908101604052809291908181526020018280546102c890610ac5565b80156103135780601f106102ea57610100808354040283529160200191610313565b820191905f5260205f20905b8154815290600101906020018083116102f657829003601f168201915b50505050509350935093509350935090919293565b5f80600280805460ff1690811115610342576103426109a6565b146103945760405162461bcd60e51b815260206004820152601a60248201527f526573756c74732077657265206e6f742064656372797074656400000000000060448201526064015b60405180910390fd5b505060025463ffffffff6101008204811692650100000000009092041690565b5f60035442111580156103dc57505f6002805460ff16908111156103da576103da6109a6565b145b905090565b600354421161042b5760405162461bcd60e51b8152602060048201526016602482015275159bdd1a5b99c81a5cc81b9bdd08199a5b9a5cda195960521b604482015260640161038b565b5f6002805460ff1690811115610443576104436109a6565b146104905760405162461bcd60e51b815260206004820152601c60248201527f44656372797074696f6e20616c72656164792072657175657374656400000000604482015260640161038b565b6002805460ff191660011790556104a56108b3565b6040517f302eb1d1fa59ca7bdf4d78d7aee48622108909a8da7f28dda1ec950909344e26905f90a1565b5f5f5f5f5f600354421190505f8180156104fe57505f6002805460ff16908111156104fc576104fc6109a6565b145b60025460065460ff90911698939750909550935090915050565b6005805461052590610ac5565b80601f016020809104026020016040519081016040528092919081815260200182805461055190610ac5565b801561059c5780601f106105735761010080835404028352916020019161059c565b820191905f5260205f20905b81548152906001019060200180831161057f57829003601f168201915b505050505081565b6003544211156105f05760405162461bcd60e51b8152602060048201526017602482015276159bdd1a5b99c81c195c9a5bd9081a185cc8195b991959604a1b604482015260640161038b565b5f6002805460ff1690811115610608576106086109a6565b1461064a5760405162461bcd60e51b81526020600482015260126024820152712b37ba34b7339034b9903737ba1037b832b760711b604482015260640161038b565b335f9081526020819052604090205460ff16156106995760405162461bcd60e51b815260206004820152600d60248201526c105b1c9958591e481d9bdd1959609a1b604482015260640161038b565b335f90815260208181526040808320805460ff19166001908117909155909152812082905560068054916106cc83610b11565b909155505060405133907fb87a61d78bd15221c59b983f6ef032fbde0631e66bfe18d1421fe5a73c16741d905f90a250565b60035442111561074a5760405162461bcd60e51b8152602060048201526017602482015276159bdd1a5b99c81c195c9a5bd9081a185cc8195b991959604a1b604482015260640161038b565b5f6002805460ff1690811115610762576107626109a6565b146107a45760405162461bcd60e51b81526020600482015260126024820152712b37ba34b7339034b9903737ba1037b832b760711b604482015260640161038b565b335f9081526020819052604090205460ff16156107f35760405162461bcd60e51b815260206004820152600d60248201526c105b1c9958591e481d9bdd1959609a1b604482015260640161038b565b335f81815260208181526040808320805460ff1916600117905551919261084692859242910192151560f81b835260609190911b6bffffffffffffffffffffffff19166001830152601582015260350190565b60408051601f198184030181529181528151602092830120335f908152600190935290822081905560068054919350909161088083610b11565b909155505060405133907fb87a61d78bd15221c59b983f6ef032fbde0631e66bfe18d1421fe5a73c16741d905f90a25050565b6064600654603c6108c49190610b29565b6108ce9190610b40565b6002805464ffffffff00191661010063ffffffff9384168102919091179182905560065461090193919092041690610b5f565b6002805468ffffffff00000000ff191660ff196501000000000063ffffffff94851681029190911691909117821791829055604080516101008404851681529190920490921660208301527f04ab8b62826ec06c4cab77bd9b338699df13637b25f5fc2ab6e9cc283fcbc7c3910160405180910390a1565b5f60208284031215610989575f5ffd5b81356001600160a01b038116811461099f575f5ffd5b9392505050565b634e487b7160e01b5f52602160045260245ffd5b600381106109d657634e487b7160e01b5f52602160045260245ffd5b9052565b602081016109e882846109ba565b92915050565b5f81518084528060208401602086015e5f602082860101526020601f19601f83011685010191505092915050565b608081525f610a2e60808301876109ee565b90508460208301528315156040830152610a4b60608301846109ba565b95945050505050565b60808101610a6282876109ba565b93151560208201529115156040830152606090910152919050565b602081525f61099f60208301846109ee565b5f60208284031215610a9f575f5ffd5b5035919050565b5f60208284031215610ab6575f5ffd5b8135801515811461099f575f5ffd5b600181811c90821680610ad957607f821691505b602082108103610af757634e487b7160e01b5f52602260045260245ffd5b50919050565b634e487b7160e01b5f52601160045260245ffd5b5f60018201610b2257610b22610afd565b5060010190565b80820281158282048414176109e8576109e8610afd565b5f82610b5a57634e487b7160e01b5f52601260045260245ffd5b500490565b818103818111156109e8576109e8610afd56fea264697066735822122025e0da9e2ddfd390c267d5c7e9d96ae907e45b2b7a10afb98defe08a577c174064736f6c634300081c0033","opcodes":"PUSH1 0x80 PUSH1 0x40 MSTORE CALLVALUE DUP1 ISZERO PUSH2 0xF JUMPI PUSH0 PUSH0 REVERT JUMPDEST POP PUSH1 0x40 MLOAD PUSH2 0xEEC CODESIZE SUB DUP1 PUSH2 0xEEC DUP4 CODECOPY DUP2 ADD PUSH1 0x40 DUP2 SWAP1 MSTORE PUSH2 0x2E SWAP2 PUSH2 0xC5 JUMP JUMPDEST PUSH1 0x4 DUP1 SLOAD PUSH1 0x1 PUSH1 0x1 PUSH1 0xA0 SHL SUB NOT AND CALLER OR SWAP1 SSTORE PUSH1 0x5 PUSH2 0x4C DUP4 DUP3 PUSH2 0x1FD JUMP JUMPDEST POP PUSH2 0x58 DUP2 PUSH1 0x3C PUSH2 0x2CB JUMP JUMPDEST PUSH2 0x62 SWAP1 TIMESTAMP PUSH2 0x2E8 JUMP JUMPDEST PUSH1 0x3 DUP2 SWAP1 SSTORE PUSH1 0x2 DUP1 SLOAD PUSH1 0xFF NOT AND SWAP1 SSTORE PUSH1 0x40 MLOAD PUSH32 0xE7D3BAF09E7E01AF2690D8AAF441AE74C786CA8C873C36726C38EAF75E0DFEC4 SWAP2 PUSH2 0xA2 SWAP2 DUP6 SWAP2 SWAP1 PUSH2 0x2FB JUMP JUMPDEST PUSH1 0x40 MLOAD DUP1 SWAP2 SUB SWAP1 LOG1 POP POP PUSH2 0x337 JUMP JUMPDEST PUSH4 0x4E487B71 PUSH1 0xE0 SHL PUSH0 MSTORE PUSH1 0x41 PUSH1 0x4 MSTORE PUSH1 0x24 PUSH0 REVERT JUMPDEST PUSH0 PUSH0 PUSH1 0x40 DUP4 DUP6 SUB SLT ISZERO PUSH2 0xD6 JUMPI PUSH0 PUSH0 REVERT JUMPDEST DUP3 MLOAD PUSH1 0x1 PUSH1 0x1 PUSH1 0x40 SHL SUB DUP2 GT ISZERO PUSH2 0xEB JUMPI PUSH0 PUSH0 REVERT JUMPDEST DUP4 ADD PUSH1 0x1F DUP2 ADD DUP6 SGT PUSH2 0xFB JUMPI PUSH0 PUSH0 REVERT JUMPDEST DUP1 MLOAD PUSH1 0x1 PUSH1 0x1 PUSH1 0x40 SHL SUB DUP2 GT ISZERO PUSH2 0x114 JUMPI PUSH2 0x114 PUSH2 0xB1 JUMP JUMPDEST PUSH1 0x40 MLOAD PUSH1 0x1F DUP3 ADD PUSH1 0x1F NOT SWAP1 DUP2 AND PUSH1 0x3F ADD AND DUP2 ADD PUSH1 0x1 PUSH1 0x1 PUSH1 0x40 SHL SUB DUP2 GT DUP3 DUP3 LT OR ISZERO PUSH2 0x142 JUMPI PUSH2 0x142 PUSH2 0xB1 JUMP JUMPDEST PUSH1 0x40 MSTORE DUP2 DUP2 MSTORE DUP3 DUP3 ADD PUSH1 0x20 ADD DUP8 LT ISZERO PUSH2 0x159 JUMPI PUSH0 PUSH0 REVERT JUMPDEST DUP2 PUSH1 0x20 DUP5 ADD PUSH1 0x20 DUP4 ADD MCOPY PUSH0 PUSH1 0x20 SWAP3 DUP3 ADD DUP4 ADD MSTORE SWAP5 ADD MLOAD SWAP4 SWAP6 SWAP4 SWAP5 POP POP POP POP JUMP JUMPDEST PUSH1 0x1 DUP2 DUP2 SHR SWAP1 DUP3 AND DUP1 PUSH2 0x18D JUMPI PUSH1 0x7F DUP3 AND SWAP2 POP JUMPDEST PUSH1 0x20 DUP3 LT DUP2 SUB PUSH2 0x1AB JUMPI PUSH4 0x4E487B71 PUSH1 0xE0 SHL PUSH0 MSTORE PUSH1 0x22 PUSH1 0x4 MSTORE PUSH1 0x24 PUSH0 REVERT JUMPDEST POP SWAP2 SWAP1 POP JUMP JUMPDEST PUSH1 0x1F DUP3 GT ISZERO PUSH2 0x1F8 JUMPI DUP1 PUSH0 MSTORE PUSH1 0x20 PUSH0 KECCAK256 PUSH1 0x1F DUP5 ADD PUSH1 0x5 SHR DUP2 ADD PUSH1 0x20 DUP6 LT ISZERO PUSH2 0x1D6 JUMPI POP DUP1 JUMPDEST PUSH1 0x1F DUP5 ADD PUSH1 0x5 SHR DUP3 ADD SWAP2 POP JUMPDEST DUP2 DUP2 LT ISZERO PUSH2 0x1F5 JUMPI PUSH0 DUP2 SSTORE PUSH1 0x1 ADD PUSH2 0x1E2 JUMP JUMPDEST POP POP JUMPDEST POP POP POP JUMP JUMPDEST DUP2 MLOAD PUSH1 0x1 PUSH1 0x1 PUSH1 0x40 SHL SUB DUP2 GT ISZERO PUSH2 0x216 JUMPI PUSH2 0x216 PUSH2 0xB1 JUMP JUMPDEST PUSH2 0x22A DUP2 PUSH2 0x224 DUP5 SLOAD PUSH2 0x179 JUMP JUMPDEST DUP5 PUSH2 0x1B1 JUMP JUMPDEST PUSH1 0x20 PUSH1 0x1F DUP3 GT PUSH1 0x1 DUP2 EQ PUSH2 0x25C JUMPI PUSH0 DUP4 ISZERO PUSH2 0x245 JUMPI POP DUP5 DUP3 ADD MLOAD JUMPDEST PUSH0 NOT PUSH1 0x3 DUP6 SWAP1 SHL SHR NOT AND PUSH1 0x1 DUP5 SWAP1 SHL OR DUP5 SSTORE PUSH2 0x1F5 JUMP JUMPDEST PUSH0 DUP5 DUP2 MSTORE PUSH1 0x20 DUP2 KECCAK256 PUSH1 0x1F NOT DUP6 AND SWAP2 JUMPDEST DUP3 DUP2 LT ISZERO PUSH2 0x28B JUMPI DUP8 DUP6 ADD MLOAD DUP3 SSTORE PUSH1 0x20 SWAP5 DUP6 ADD SWAP5 PUSH1 0x1 SWAP1 SWAP3 ADD SWAP2 ADD PUSH2 0x26B JUMP JUMPDEST POP DUP5 DUP3 LT ISZERO PUSH2 0x2A8 JUMPI DUP7 DUP5 ADD MLOAD PUSH0 NOT PUSH1 0x3 DUP8 SWAP1 SHL PUSH1 0xF8 AND SHR NOT AND DUP2 SSTORE JUMPDEST POP POP POP POP PUSH1 0x1 SWAP1 DUP2 SHL ADD SWAP1 SSTORE POP JUMP JUMPDEST PUSH4 0x4E487B71 PUSH1 0xE0 SHL PUSH0 MSTORE PUSH1 0x11 PUSH1 0x4 MSTORE PUSH1 0x24 PUSH0 REVERT JUMPDEST DUP1 DUP3 MUL DUP2 ISZERO DUP3 DUP3 DIV DUP5 EQ OR PUSH2 0x2E2 JUMPI PUSH2 0x2E2 PUSH2 0x2B7 JUMP JUMPDEST SWAP3 SWAP2 POP POP JUMP JUMPDEST DUP1 DUP3 ADD DUP1 DUP3 GT ISZERO PUSH2 0x2E2 JUMPI PUSH2 0x2E2 PUSH2 0x2B7 JUMP JUMPDEST PUSH1 0x40 DUP2 MSTORE PUSH0 DUP4 MLOAD DUP1 PUSH1 0x40 DUP5 ADD MSTORE DUP1 PUSH1 0x20 DUP7 ADD PUSH1 0x60 DUP6 ADD MCOPY PUSH0 PUSH1 0x60 DUP3 DUP6 ADD ADD MSTORE PUSH1 0x60 PUSH1 0x1F NOT PUSH1 0x1F DUP4 ADD AND DUP5 ADD ADD SWAP2 POP POP DUP3 PUSH1 0x20 DUP4 ADD MSTORE SWAP4 SWAP3 POP POP POP JUMP JUMPDEST PUSH2 0xBA8 DUP1 PUSH2 0x344 PUSH0 CODECOPY PUSH0 RETURN INVALID PUSH1 0x80 PUSH1 0x40 MSTORE CALLVALUE DUP1 ISZERO PUSH2 0xF JUMPI PUSH0 PUSH0 REVERT JUMPDEST POP PUSH1 0x4 CALLDATASIZE LT PUSH2 0xF0 JUMPI PUSH0 CALLDATALOAD PUSH1 0xE0 SHR DUP1 PUSH4 0x7284E416 GT PUSH2 0x93 JUMPI DUP1 PUSH4 0x8DA5CB5B GT PUSH2 0x63 JUMPI DUP1 PUSH4 0x8DA5CB5B EQ PUSH2 0x215 JUMPI DUP1 PUSH4 0xB1CC9CA3 EQ PUSH2 0x240 JUMPI DUP1 PUSH4 0xE37BB8CB EQ PUSH2 0x259 JUMPI DUP1 PUSH4 0xE7B3387C EQ PUSH2 0x26C JUMPI PUSH0 PUSH0 REVERT JUMPDEST DUP1 PUSH4 0x7284E416 EQ PUSH2 0x1AC JUMPI DUP1 PUSH4 0x82DEE8AD EQ PUSH2 0x1C1 JUMPI DUP1 PUSH4 0x83CA5A5B EQ PUSH2 0x1D4 JUMPI DUP1 PUSH4 0x89F1652D EQ PUSH2 0x1EB JUMPI PUSH0 PUSH0 REVERT JUMPDEST DUP1 PUSH4 0x4717F97C GT PUSH2 0xCE JUMPI DUP1 PUSH4 0x4717F97C EQ PUSH2 0x15D JUMPI DUP1 PUSH4 0x47CF6F76 EQ PUSH2 0x182 JUMPI DUP1 PUSH4 0x4964B4B9 EQ PUSH2 0x18A JUMPI DUP1 PUSH4 0x4E69D560 EQ PUSH2 0x194 JUMPI PUSH0 PUSH0 REVERT JUMPDEST DUP1 PUSH4 0x9EEF43E EQ PUSH2 0xF4 JUMPI DUP1 PUSH4 0x200D2ED2 EQ PUSH2 0x12B JUMPI DUP1 PUSH4 0x359AF4B2 EQ PUSH2 0x145 JUMPI JUMPDEST PUSH0 PUSH0 REVERT JUMPDEST PUSH2 0x116 PUSH2 0x102 CALLDATASIZE PUSH1 0x4 PUSH2 0x979 JUMP JUMPDEST PUSH0 PUSH1 0x20 DUP2 SWAP1 MSTORE SWAP1 DUP2 MSTORE PUSH1 0x40 SWAP1 KECCAK256 SLOAD PUSH1 0xFF AND DUP2 JUMP JUMPDEST PUSH1 0x40 MLOAD SWAP1 ISZERO ISZERO DUP2 MSTORE PUSH1 0x20 ADD JUMPDEST PUSH1 0x40 MLOAD DUP1 SWAP2 SUB SWAP1 RETURN JUMPDEST PUSH1 0x2 SLOAD PUSH2 0x138 SWAP1 PUSH1 0xFF AND DUP2 JUMP JUMPDEST PUSH1 0x40 MLOAD PUSH2 0x122 SWAP2 SWAP1 PUSH2 0x9DA JUMP JUMPDEST PUSH2 0x14D PUSH2 0x274 JUMP JUMPDEST PUSH1 0x40 MLOAD PUSH2 0x122 SWAP5 SWAP4 SWAP3 SWAP2 SWAP1 PUSH2 0xA1C JUMP JUMPDEST PUSH2 0x165 PUSH2 0x328 JUMP JUMPDEST PUSH1 0x40 DUP1 MLOAD PUSH4 0xFFFFFFFF SWAP4 DUP5 AND DUP2 MSTORE SWAP3 SWAP1 SWAP2 AND PUSH1 0x20 DUP4 ADD MSTORE ADD PUSH2 0x122 JUMP JUMPDEST PUSH2 0x116 PUSH2 0x3B4 JUMP JUMPDEST PUSH2 0x192 PUSH2 0x3E1 JUMP JUMPDEST STOP JUMPDEST PUSH2 0x19C PUSH2 0x4CF JUMP JUMPDEST PUSH1 0x40 MLOAD PUSH2 0x122 SWAP5 SWAP4 SWAP3 SWAP2 SWAP1 PUSH2 0xA54 JUMP JUMPDEST PUSH2 0x1B4 PUSH2 0x518 JUMP JUMPDEST PUSH1 0x40 MLOAD PUSH2 0x122 SWAP2 SWAP1 PUSH2 0xA7D JUMP JUMPDEST PUSH2 0x192 PUSH2 0x1CF CALLDATASIZE PUSH1 0x4 PUSH2 0xA8F JUMP JUMPDEST PUSH2 0x5A4 JUMP JUMPDEST PUSH2 0x1DD PUSH1 0x3 SLOAD DUP2 JUMP JUMPDEST PUSH1 0x40 MLOAD SWAP1 DUP2 MSTORE PUSH1 0x20 ADD PUSH2 0x122 JUMP JUMPDEST PUSH1 0x2 SLOAD PUSH2 0x200 SWAP1 PUSH2 0x100 SWAP1 DIV PUSH4 0xFFFFFFFF AND DUP2 JUMP JUMPDEST PUSH1 0x40 MLOAD PUSH4 0xFFFFFFFF SWAP1 SWAP2 AND DUP2 MSTORE PUSH1 0x20 ADD PUSH2 0x122 JUMP JUMPDEST PUSH1 0x4 SLOAD PUSH2 0x228 SWAP1 PUSH1 0x1 PUSH1 0x1 PUSH1 0xA0 SHL SUB AND DUP2 JUMP JUMPDEST PUSH1 0x40 MLOAD PUSH1 0x1 PUSH1 0x1 PUSH1 0xA0 SHL SUB SWAP1 SWAP2 AND DUP2 MSTORE PUSH1 0x20 ADD PUSH2 0x122 JUMP JUMPDEST PUSH1 0x2 SLOAD PUSH2 0x200 SWAP1 PUSH6 0x10000000000 SWAP1 DIV PUSH4 0xFFFFFFFF AND DUP2 JUMP JUMPDEST PUSH2 0x192 PUSH2 0x267 CALLDATASIZE PUSH1 0x4 PUSH2 0xAA6 JUMP JUMPDEST PUSH2 0x6FE JUMP JUMPDEST PUSH1 0x6 SLOAD PUSH2 0x1DD JUMP JUMPDEST PUSH1 0x60 PUSH0 PUSH0 PUSH0 PUSH1 0x5 PUSH1 0x3 SLOAD PUSH2 0x286 PUSH2 0x3B4 JUMP JUMPDEST PUSH1 0x2 SLOAD DUP4 SLOAD PUSH1 0xFF SWAP1 SWAP2 AND SWAP1 DUP5 SWAP1 PUSH2 0x29C SWAP1 PUSH2 0xAC5 JUMP JUMPDEST DUP1 PUSH1 0x1F ADD PUSH1 0x20 DUP1 SWAP2 DIV MUL PUSH1 0x20 ADD PUSH1 0x40 MLOAD SWAP1 DUP2 ADD PUSH1 0x40 MSTORE DUP1 SWAP3 SWAP2 SWAP1 DUP2 DUP2 MSTORE PUSH1 0x20 ADD DUP3 DUP1 SLOAD PUSH2 0x2C8 SWAP1 PUSH2 0xAC5 JUMP JUMPDEST DUP1 ISZERO PUSH2 0x313 JUMPI DUP1 PUSH1 0x1F LT PUSH2 0x2EA JUMPI PUSH2 0x100 DUP1 DUP4 SLOAD DIV MUL DUP4 MSTORE SWAP2 PUSH1 0x20 ADD SWAP2 PUSH2 0x313 JUMP JUMPDEST DUP3 ADD SWAP2 SWAP1 PUSH0 MSTORE PUSH1 0x20 PUSH0 KECCAK256 SWAP1 JUMPDEST DUP2 SLOAD DUP2 MSTORE SWAP1 PUSH1 0x1 ADD SWAP1 PUSH1 0x20 ADD DUP1 DUP4 GT PUSH2 0x2F6 JUMPI DUP3 SWAP1 SUB PUSH1 0x1F AND DUP3 ADD SWAP2 JUMPDEST POP POP POP POP POP SWAP4 POP SWAP4 POP SWAP4 POP SWAP4 POP SWAP4 POP SWAP1 SWAP2 SWAP3 SWAP4 JUMP JUMPDEST PUSH0 DUP1 PUSH1 0x2 DUP1 DUP1 SLOAD PUSH1 0xFF AND SWAP1 DUP2 GT ISZERO PUSH2 0x342 JUMPI PUSH2 0x342 PUSH2 0x9A6 JUMP JUMPDEST EQ PUSH2 0x394 JUMPI PUSH1 0x40 MLOAD PUSH3 0x461BCD PUSH1 0xE5 SHL DUP2 MSTORE PUSH1 0x20 PUSH1 0x4 DUP3 ADD MSTORE PUSH1 0x1A PUSH1 0x24 DUP3 ADD MSTORE PUSH32 0x526573756C74732077657265206E6F7420646563727970746564000000000000 PUSH1 0x44 DUP3 ADD MSTORE PUSH1 0x64 ADD JUMPDEST PUSH1 0x40 MLOAD DUP1 SWAP2 SUB SWAP1 REVERT JUMPDEST POP POP PUSH1 0x2 SLOAD PUSH4 0xFFFFFFFF PUSH2 0x100 DUP3 DIV DUP2 AND SWAP3 PUSH6 0x10000000000 SWAP1 SWAP3 DIV AND SWAP1 JUMP JUMPDEST PUSH0 PUSH1 0x3 SLOAD TIMESTAMP GT ISZERO DUP1 ISZERO PUSH2 0x3DC JUMPI POP PUSH0 PUSH1 0x2 DUP1 SLOAD PUSH1 0xFF AND SWAP1 DUP2 GT ISZERO PUSH2 0x3DA JUMPI PUSH2 0x3DA PUSH2 0x9A6 JUMP JUMPDEST EQ JUMPDEST SWAP1 POP SWAP1 JUMP JUMPDEST PUSH1 0x3 SLOAD TIMESTAMP GT PUSH2 0x42B JUMPI PUSH1 0x40 MLOAD PUSH3 0x461BCD PUSH1 0xE5 SHL DUP2 MSTORE PUSH1 0x20 PUSH1 0x4 DUP3 ADD MSTORE PUSH1 0x16 PUSH1 0x24 DUP3 ADD MSTORE PUSH22 0x159BDD1A5B99C81A5CC81B9BDD08199A5B9A5CDA1959 PUSH1 0x52 SHL PUSH1 0x44 DUP3 ADD MSTORE PUSH1 0x64 ADD PUSH2 0x38B JUMP JUMPDEST PUSH0 PUSH1 0x2 DUP1 SLOAD PUSH1 0xFF AND SWAP1 DUP2 GT ISZERO PUSH2 0x443 JUMPI PUSH2 0x443 PUSH2 0x9A6 JUMP JUMPDEST EQ PUSH2 0x490 JUMPI PUSH1 0x40 MLOAD PUSH3 0x461BCD PUSH1 0xE5 SHL DUP2 MSTORE PUSH1 0x20 PUSH1 0x4 DUP3 ADD MSTORE PUSH1 0x1C PUSH1 0x24 DUP3 ADD MSTORE PUSH32 0x44656372797074696F6E20616C72656164792072657175657374656400000000 PUSH1 0x44 DUP3 ADD MSTORE PUSH1 0x64 ADD PUSH2 0x38B JUMP JUMPDEST PUSH1 0x2 DUP1 SLOAD PUSH1 0xFF NOT AND PUSH1 0x1 OR SWAP1 SSTORE PUSH2 0x4A5 PUSH2 0x8B3 JUMP JUMPDEST PUSH1 0x40 MLOAD PUSH32 0x302EB1D1FA59CA7BDF4D78D7AEE48622108909A8DA7F28DDA1EC950909344E26 SWAP1 PUSH0 SWAP1 LOG1 JUMP JUMPDEST PUSH0 PUSH0 PUSH0 PUSH0 PUSH0 PUSH1 0x3 SLOAD TIMESTAMP GT SWAP1 POP PUSH0 DUP2 DUP1 ISZERO PUSH2 0x4FE JUMPI POP PUSH0 PUSH1 0x2 DUP1 SLOAD PUSH1 0xFF AND SWAP1 DUP2 GT ISZERO PUSH2 0x4FC JUMPI PUSH2 0x4FC PUSH2 0x9A6 JUMP JUMPDEST EQ JUMPDEST PUSH1 0x2 SLOAD PUSH1 0x6 SLOAD PUSH1 0xFF SWAP1 SWAP2 AND SWAP9 SWAP4 SWAP8 POP SWAP1 SWAP6 POP SWAP4 POP SWAP1 SWAP2 POP POP JUMP JUMPDEST PUSH1 0x5 DUP1 SLOAD PUSH2 0x525 SWAP1 PUSH2 0xAC5 JUMP JUMPDEST DUP1 PUSH1 0x1F ADD PUSH1 0x20 DUP1 SWAP2 DIV MUL PUSH1 0x20 ADD PUSH1 0x40 MLOAD SWAP1 DUP2 ADD PUSH1 0x40 MSTORE DUP1 SWAP3 SWAP2 SWAP1 DUP2 DUP2 MSTORE PUSH1 0x20 ADD DUP3 DUP1 SLOAD PUSH2 0x551 SWAP1 PUSH2 0xAC5 JUMP JUMPDEST DUP1 ISZERO PUSH2 0x59C JUMPI DUP1 PUSH1 0x1F LT PUSH2 0x573 JUMPI PUSH2 0x100 DUP1 DUP4 SLOAD DIV MUL DUP4 MSTORE SWAP2 PUSH1 0x20 ADD SWAP2 PUSH2 0x59C JUMP JUMPDEST DUP3 ADD SWAP2 SWAP1 PUSH0 MSTORE PUSH1 0x20 PUSH0 KECCAK256 SWAP1 JUMPDEST DUP2 SLOAD DUP2 MSTORE SWAP1 PUSH1 0x1 ADD SWAP1 PUSH1 0x20 ADD DUP1 DUP4 GT PUSH2 0x57F JUMPI DUP3 SWAP1 SUB PUSH1 0x1F AND DUP3 ADD SWAP2 JUMPDEST POP POP POP POP POP DUP2 JUMP JUMPDEST PUSH1 0x3 SLOAD TIMESTAMP GT ISZERO PUSH2 0x5F0 JUMPI PUSH1 0x40 MLOAD PUSH3 0x461BCD PUSH1 0xE5 SHL DUP2 MSTORE PUSH1 0x20 PUSH1 0x4 DUP3 ADD MSTORE PUSH1 0x17 PUSH1 0x24 DUP3 ADD MSTORE PUSH23 0x159BDD1A5B99C81C195C9A5BD9081A185CC8195B991959 PUSH1 0x4A SHL PUSH1 0x44 DUP3 ADD MSTORE PUSH1 0x64 ADD PUSH2 0x38B JUMP JUMPDEST PUSH0 PUSH1 0x2 DUP1 SLOAD PUSH1 0xFF AND SWAP1 DUP2 GT ISZERO PUSH2 0x608 JUMPI PUSH2 0x608 PUSH2 0x9A6 JUMP JUMPDEST EQ PUSH2 0x64A JUMPI PUSH1 0x40 MLOAD PUSH3 0x461BCD PUSH1 0xE5 SHL DUP2 MSTORE PUSH1 0x20 PUSH1 0x4 DUP3 ADD MSTORE PUSH1 0x12 PUSH1 0x24 DUP3 ADD MSTORE PUSH18 0x2B37BA34B7339034B9903737BA1037B832B7 PUSH1 0x71 SHL PUSH1 0x44 DUP3 ADD MSTORE PUSH1 0x64 ADD PUSH2 0x38B JUMP JUMPDEST CALLER PUSH0 SWAP1 DUP2 MSTORE PUSH1 0x20 DUP2 SWAP1 MSTORE PUSH1 0x40 SWAP1 KECCAK256 SLOAD PUSH1 0xFF AND ISZERO PUSH2 0x699 JUMPI PUSH1 0x40 MLOAD PUSH3 0x461BCD PUSH1 0xE5 SHL DUP2 MSTORE PUSH1 0x20 PUSH1 0x4 DUP3 ADD MSTORE PUSH1 0xD PUSH1 0x24 DUP3 ADD MSTORE PUSH13 0x105B1C9958591E481D9BDD1959 PUSH1 0x9A SHL PUSH1 0x44 DUP3 ADD MSTORE PUSH1 0x64 ADD PUSH2 0x38B JUMP JUMPDEST CALLER PUSH0 SWAP1 DUP2 MSTORE PUSH1 0x20 DUP2 DUP2 MSTORE PUSH1 0x40 DUP1 DUP4 KECCAK256 DUP1 SLOAD PUSH1 0xFF NOT AND PUSH1 0x1 SWAP1 DUP2 OR SWAP1 SWAP2 SSTORE SWAP1 SWAP2 MSTORE DUP2 KECCAK256 DUP3 SWAP1 SSTORE PUSH1 0x6 DUP1 SLOAD SWAP2 PUSH2 0x6CC DUP4 PUSH2 0xB11 JUMP JUMPDEST SWAP1 SWAP2 SSTORE POP POP PUSH1 0x40 MLOAD CALLER SWAP1 PUSH32 0xB87A61D78BD15221C59B983F6EF032FBDE0631E66BFE18D1421FE5A73C16741D SWAP1 PUSH0 SWAP1 LOG2 POP JUMP JUMPDEST PUSH1 0x3 SLOAD TIMESTAMP GT ISZERO PUSH2 0x74A JUMPI PUSH1 0x40 MLOAD PUSH3 0x461BCD PUSH1 0xE5 SHL DUP2 MSTORE PUSH1 0x20 PUSH1 0x4 DUP3 ADD MSTORE PUSH1 0x17 PUSH1 0x24 DUP3 ADD MSTORE PUSH23 0x159BDD1A5B99C81C195C9A5BD9081A185CC8195B991959 PUSH1 0x4A SHL PUSH1 0x44 DUP3 ADD MSTORE PUSH1 0x64 ADD PUSH2 0x38B JUMP JUMPDEST PUSH0 PUSH1 0x2 DUP1 SLOAD PUSH1 0xFF AND SWAP1 DUP2 GT ISZERO PUSH2 0x762 JUMPI PUSH2 0x762 PUSH2 0x9A6 JUMP JUMPDEST EQ PUSH2 0x7A4 JUMPI PUSH1 0x40 MLOAD PUSH3 0x461BCD PUSH1 0xE5 SHL DUP2 MSTORE PUSH1 0x20 PUSH1 0x4 DUP3 ADD MSTORE PUSH1 0x12 PUSH1 0x24 DUP3 ADD MSTORE PUSH18 0x2B37BA34B7339034B9903737BA1037B832B7 PUSH1 0x71 SHL PUSH1 0x44 DUP3 ADD MSTORE PUSH1 0x64 ADD PUSH2 0x38B JUMP JUMPDEST CALLER PUSH0 SWAP1 DUP2 MSTORE PUSH1 0x20 DUP2 SWAP1 MSTORE PUSH1 0x40 SWAP1 KECCAK256 SLOAD PUSH1 0xFF AND ISZERO PUSH2 0x7F3 JUMPI PUSH1 0x40 MLOAD PUSH3 0x461BCD PUSH1 0xE5 SHL DUP2 MSTORE PUSH1 0x20 PUSH1 0x4 DUP3 ADD MSTORE PUSH1 0xD PUSH1 0x24 DUP3 ADD MSTORE PUSH13 0x105B1C9958591E481D9BDD1959 PUSH1 0x9A SHL PUSH1 0x44 DUP3 ADD MSTORE PUSH1 0x64 ADD PUSH2 0x38B JUMP JUMPDEST CALLER PUSH0 DUP2 DUP2 MSTORE PUSH1 0x20 DUP2 DUP2 MSTORE PUSH1 0x40 DUP1 DUP4 KECCAK256 DUP1 SLOAD PUSH1 0xFF NOT AND PUSH1 0x1 OR SWAP1 SSTORE MLOAD SWAP2 SWAP3 PUSH2 0x846 SWAP3 DUP6 SWAP3 TIMESTAMP SWAP2 ADD SWAP3 ISZERO ISZERO PUSH1 0xF8 SHL DUP4 MSTORE PUSH1 0x60 SWAP2 SWAP1 SWAP2 SHL PUSH12 0xFFFFFFFFFFFFFFFFFFFFFFFF NOT AND PUSH1 0x1 DUP4 ADD MSTORE PUSH1 0x15 DUP3 ADD MSTORE PUSH1 0x35 ADD SWAP1 JUMP JUMPDEST PUSH1 0x40 DUP1 MLOAD PUSH1 0x1F NOT DUP2 DUP5 SUB ADD DUP2 MSTORE SWAP2 DUP2 MSTORE DUP2 MLOAD PUSH1 0x20 SWAP3 DUP4 ADD KECCAK256 CALLER PUSH0 SWAP1 DUP2 MSTORE PUSH1 0x1 SWAP1 SWAP4 MSTORE SWAP1 DUP3 KECCAK256 DUP2 SWAP1 SSTORE PUSH1 0x6 DUP1 SLOAD SWAP2 SWAP4 POP SWAP1 SWAP2 PUSH2 0x880 DUP4 PUSH2 0xB11 JUMP JUMPDEST SWAP1 SWAP2 SSTORE POP POP PUSH1 0x40 MLOAD CALLER SWAP1 PUSH32 0xB87A61D78BD15221C59B983F6EF032FBDE0631E66BFE18D1421FE5A73C16741D SWAP1 PUSH0 SWAP1 LOG2 POP POP JUMP JUMPDEST PUSH1 0x64 PUSH1 0x6 SLOAD PUSH1 0x3C PUSH2 0x8C4 SWAP2 SWAP1 PUSH2 0xB29 JUMP JUMPDEST PUSH2 0x8CE SWAP2 SWAP1 PUSH2 0xB40 JUMP JUMPDEST PUSH1 0x2 DUP1 SLOAD PUSH5 0xFFFFFFFF00 NOT AND PUSH2 0x100 PUSH4 0xFFFFFFFF SWAP4 DUP5 AND DUP2 MUL SWAP2 SWAP1 SWAP2 OR SWAP2 DUP3 SWAP1 SSTORE PUSH1 0x6 SLOAD PUSH2 0x901 SWAP4 SWAP2 SWAP1 SWAP3 DIV AND SWAP1 PUSH2 0xB5F JUMP JUMPDEST PUSH1 0x2 DUP1 SLOAD PUSH9 0xFFFFFFFF00000000FF NOT AND PUSH1 0xFF NOT PUSH6 0x10000000000 PUSH4 0xFFFFFFFF SWAP5 DUP6 AND DUP2 MUL SWAP2 SWAP1 SWAP2 AND SWAP2 SWAP1 SWAP2 OR DUP3 OR SWAP2 DUP3 SWAP1 SSTORE PUSH1 0x40 DUP1 MLOAD PUSH2 0x100 DUP5 DIV DUP6 AND DUP2 MSTORE SWAP2 SWAP1 SWAP3 DIV SWAP1 SWAP3 AND PUSH1 0x20 DUP4 ADD MSTORE PUSH32 0x4AB8B62826EC06C4CAB77BD9B338699DF13637B25F5FC2AB6E9CC283FCBC7C3 SWAP2 ADD PUSH1 0x40 MLOAD DUP1 SWAP2 SUB SWAP1 LOG1 JUMP JUMPDEST PUSH0 PUSH1 0x20 DUP3 DUP5 SUB SLT ISZERO PUSH2 0x989 JUMPI PUSH0 PUSH0 REVERT JUMPDEST DUP2 CALLDATALOAD PUSH1 0x1 PUSH1 0x1 PUSH1 0xA0 SHL SUB DUP2 AND DUP2 EQ PUSH2 0x99F JUMPI PUSH0 PUSH0 REVERT JUMPDEST SWAP4 SWAP3 POP POP POP JUMP JUMPDEST PUSH4 0x4E487B71 PUSH1 0xE0 SHL PUSH0 MSTORE PUSH1 0x21 PUSH1 0x4 MSTORE PUSH1 0x24 PUSH0 REVERT JUMPDEST PUSH1 0x3 DUP2 LT PUSH2 0x9D6 JUMPI PUSH4 0x4E487B71 PUSH1 0xE0 SHL PUSH0 MSTORE PUSH1 0x21 PUSH1 0x4 MSTORE PUSH1 0x24 PUSH0 REVERT JUMPDEST SWAP1 MSTORE JUMP JUMPDEST PUSH1 0x20 DUP2 ADD PUSH2 0x9E8 DUP3 DUP5 PUSH2 0x9BA JUMP JUMPDEST SWAP3 SWAP2 POP POP JUMP JUMPDEST PUSH0 DUP2 MLOAD DUP1 DUP5 MSTORE DUP1 PUSH1 0x20 DUP5 ADD PUSH1 0x20 DUP7 ADD MCOPY PUSH0 PUSH1 0x20 DUP3 DUP7 ADD ADD MSTORE PUSH1 0x20 PUSH1 0x1F NOT PUSH1 0x1F DUP4 ADD AND DUP6 ADD ADD SWAP2 POP POP SWAP3 SWAP2 POP POP JUMP JUMPDEST PUSH1 0x80 DUP2 MSTORE PUSH0 PUSH2 0xA2E PUSH1 0x80 DUP4 ADD DUP8 PUSH2 0x9EE JUMP JUMPDEST SWAP1 POP DUP5 PUSH1 0x20 DUP4 ADD MSTORE DUP4 ISZERO ISZERO PUSH1 0x40 DUP4 ADD MSTORE PUSH2 0xA4B PUSH1 0x60 DUP4 ADD DUP5 PUSH2 0x9BA JUMP JUMPDEST SWAP6 SWAP5 POP POP POP POP POP JUMP JUMPDEST PUSH1 0x80 DUP2 ADD PUSH2 0xA62 DUP3 DUP8 PUSH2 0x9BA JUMP JUMPDEST SWAP4 ISZERO ISZERO PUSH1 0x20 DUP3 ADD MSTORE SWAP2 ISZERO ISZERO PUSH1 0x40 DUP4 ADD MSTORE PUSH1 0x60 SWAP1 SWAP2 ADD MSTORE SWAP2 SWAP1 POP JUMP JUMPDEST PUSH1 0x20 DUP2 MSTORE PUSH0 PUSH2 0x99F PUSH1 0x20 DUP4 ADD DUP5 PUSH2 0x9EE JUMP JUMPDEST PUSH0 PUSH1 0x20 DUP3 DUP5 SUB SLT ISZERO PUSH2 0xA9F JUMPI PUSH0 PUSH0 REVERT JUMPDEST POP CALLDATALOAD SWAP2 SWAP1 POP JUMP JUMPDEST PUSH0 PUSH1 0x20 DUP3 DUP5 SUB SLT ISZERO PUSH2 0xAB6 JUMPI PUSH0 PUSH0 REVERT JUMPDEST DUP2 CALLDATALOAD DUP1 ISZERO ISZERO DUP2 EQ PUSH2 0x99F JUMPI PUSH0 PUSH0 REVERT JUMPDEST PUSH1 0x1 DUP2 DUP2 SHR SWAP1 DUP3 AND DUP1 PUSH2 0xAD9 JUMPI PUSH1 0x7F DUP3 AND SWAP2 POP JUMPDEST PUSH1 0x20 DUP3 LT DUP2 SUB PUSH2 0xAF7 JUMPI PUSH4 0x4E487B71 PUSH1 0xE0 SHL PUSH0 MSTORE PUSH1 0x22 PUSH1 0x4 MSTORE PUSH1 0x24 PUSH0 REVERT JUMPDEST POP SWAP2 SWAP1 POP JUMP JUMPDEST PUSH4 0x4E487B71 PUSH1 0xE0 SHL PUSH0 MSTORE PUSH1 0x11 PUSH1 0x4 MSTORE PUSH1 0x24 PUSH0 REVERT JUMPDEST PUSH0 PUSH1 0x1 DUP3 ADD PUSH2 0xB22 JUMPI PUSH2 0xB22 PUSH2 0xAFD JUMP JUMPDEST POP PUSH1 0x1 ADD SWAP1 JUMP JUMPDEST DUP1 DUP3 MUL DUP2 ISZERO DUP3 DUP3 DIV DUP5 EQ OR PUSH2 0x9E8 JUMPI PUSH2 0x9E8 PUSH2 0xAFD JUMP JUMPDEST PUSH0 DUP3 PUSH2 0xB5A JUMPI PUSH4 0x4E487B71 PUSH1 0xE0 SHL PUSH0 MSTORE PUSH1 0x12 PUSH1 0x4 MSTORE PUSH1 0x24 PUSH0 REVERT JUMPDEST POP DIV SWAP1 JUMP JUMPDEST DUP2 DUP2 SUB DUP2 DUP2 GT ISZERO PUSH2 0x9E8 JUMPI PUSH2 0x9E8 PUSH2 0xAFD JUMP INVALID LOG2 PUSH5 0x6970667358 0x22 SLT KECCAK256 0x25 0xE0 0xDA SWAP15 0x2D 0xDF 0xD3 SWAP1 0xC2 PUSH8 0xD5C7E9D96AE907E4 JUMPDEST 0x2B PUSH27 0x10AFB98DEFE08A577C174064736F6C634300081C00330000000000 "},"methodIdentifiers":{"decryptedNoVotes()":"b1cc9ca3","decryptedYesVotes()":"89f1652d","description()":"7284e416","getResults()":"4717f97c","getStatus()":"4e69d560","getVoteCount()":"e7b3387c","getVotingInfo()":"359af4b2","hasVoted(address)":"09eef43e","isVotingActive()":"47cf6f76","owner()":"8da5cb5b","requestVoteDecryption()":"4964b4b9","status()":"200d2ed2","voteDeadline()":"83ca5a5b","voteEncrypted(bytes32)":"82dee8ad","votePlaintext(bool)":"e37bb8cb"}}}}}