{"project/contracts/SimpleVoting.sol":{"SimpleVoting":{"abi":[{"inputs":[{"internalType":"string","name":"_description","type":"string"},{"internalType":"uint256","name":"_durationInMinutes","type":"uint256"}],"stateMutability":"nonpayable","type":"constructor"},{"anonymous":false,"inputs":[{"indexed":true,"internalType":"address","name":"voter","type":"address"},{"indexed":false,"internalType":"bool","name":"support","type":"bool"}],"name":"VoteCast","type":"event"},{"anonymous":false,"inputs":[{"indexed":false,"internalType":"string","name":"description","type":"string"},{"indexed":false,"internalType":"uint256","name":"deadline","type":"uint256"}],"name":"VotingCreated","type":"event"},{"inputs":[],"name":"description","outputs":[{"internalType":"string","name":"","type":"string"}],"stateMutability":"view","type":"function"},{"inputs":[],"name":"getResults","outputs":[{"internalType":"uint32","name":"","type":"uint32"},{"internalType":"uint32","name":"","type":"uint32"}],"stateMutability":"view","type":"function"},{"inputs":[],"name":"getVotingInfo","outputs":[{"internalType":"string","name":"","type":"string"},{"internalType":"uint256","name":"","type":"uint256"},{"internalType":"bool","name":"","type":"bool"}],"stateMutability":"view","type":"function"},{"inputs":[{"internalType":"address","name":"","type":"address"}],"name":"hasVoted","outputs":[{"internalType":"bool","name":"","type":"bool"}],"stateMutability":"view","type":"function"},{"inputs":[],"name":"isVotingActive","outputs":[{"internalType":"bool","name":"","type":"bool"}],"stateMutability":"view","type":"function"},{"inputs":[],"name":"noVotes","outputs":[{"internalType":"uint32","name":"","type":"uint32"}],"stateMutability":"view","type":"function"},{"inputs":[],"name":"owner","outputs":[{"internalType":"address","name":"","type":"address"}],"stateMutability":"view","type":"function"},{"inputs":[{"internalType":"bool","name":"support","type":"bool"}],"name":"vote","outputs":[],"stateMutability":"nonpayable","type":"function"},{"inputs":[],"name":"voteDeadline","outputs":[{"internalType":"uint32","name":"","type":"uint32"}],"stateMutability":"view","type":"function"},{"inputs":[],"name":"yesVotes","outputs":[{"internalType":"uint32","name":"","type":"uint32"}],"stateMutability":"view","type":"function"}],"evm":{"bytecode":{"linkReferences":{},"object":"608060405234801561000f575f5ffd5b5060405161097438038061097483398101604081905261002e916100f1565b600180546001600160601b0316336c0100000000000000000000000002179055600261005a8382610229565b5061006681603c6102f7565b6100709042610314565b6001805463ffffffff60401b19166801000000000000000063ffffffff938416810291909117918290556040517fe7d3baf09e7e01af2690d8aaf441ae74c786ca8c873c36726c38eaf75e0dfec4936100ce93879390041690610327565b60405180910390a15050610369565b634e487b7160e01b5f52604160045260245ffd5b5f5f60408385031215610102575f5ffd5b82516001600160401b03811115610117575f5ffd5b8301601f81018513610127575f5ffd5b80516001600160401b03811115610140576101406100dd565b604051601f8201601f19908116603f011681016001600160401b038111828210171561016e5761016e6100dd565b604052818152828201602001871015610185575f5ffd5b8160208401602083015e5f60209282018301529401519395939450505050565b600181811c908216806101b957607f821691505b6020821081036101d757634e487b7160e01b5f52602260045260245ffd5b50919050565b601f82111561022457805f5260205f20601f840160051c810160208510156102025750805b601f840160051c820191505b81811015610221575f815560010161020e565b50505b505050565b81516001600160401b03811115610242576102426100dd565b6102568161025084546101a5565b846101dd565b6020601f821160018114610288575f83156102715750848201515b5f19600385901b1c1916600184901b178455610221565b5f84815260208120601f198516915b828110156102b75787850151825560209485019460019092019101610297565b50848210156102d457868401515f19600387901b60f8161c191681555b50505050600190811b01905550565b634e487b7160e01b5f52601160045260245ffd5b808202811582820484141761030e5761030e6102e3565b92915050565b8082018082111561030e5761030e6102e3565b604081525f83518060408401528060208601606085015e5f606082850101526060601f19601f83011684010191505063ffffffff831660208301529392505050565b6105fe806103765f395ff3fe608060405234801561000f575f5ffd5b506004361061009b575f3560e01c80637284e416116100635780637284e4161461014257806383ca5a5b146101575780638da5cb5b14610183578063b5b47f42146101b5578063fb286c65146101cd575f5ffd5b806309eef43e1461009f578063359af4b2146100d65780634717f97c146100ed57806347cf6f76146101155780634b9f5c981461012d575b5f5ffd5b6100c16100ad3660046104ad565b5f6020819052908152604090205460ff1681565b60405190151581526020015b60405180910390f35b6100de6101dd565b6040516100cd93929190610508565b6001546040805163ffffffff80841682526401000000009093049092166020830152016100cd565b600154600160401b900463ffffffff164211156100c1565b61014061013b366004610531565b610298565b005b61014a610421565b6040516100cd9190610550565b60015461016e90600160401b900463ffffffff1681565b60405163ffffffff90911681526020016100cd565b60015461019d90600160601b90046001600160a01b031681565b6040516001600160a01b0390911681526020016100cd565b60015461016e90640100000000900463ffffffff1681565b60015461016e9063ffffffff1681565b6001546060905f908190600290600160401b900463ffffffff164281101582805461020790610562565b80601f016020809104026020016040519081016040528092919081815260200182805461023390610562565b801561027e5780601f106102555761010080835404028352916020019161027e565b820191905f5260205f20905b81548152906001019060200180831161026157829003601f168201915b50939a63ffffffff90961699509397509395505050505050565b600154600160401b900463ffffffff164211156102fc5760405162461bcd60e51b815260206004820152601760248201527f566f74696e6720706572696f642068617320656e64656400000000000000000060448201526064015b60405180910390fd5b335f9081526020819052604090205460ff161561034b5760405162461bcd60e51b815260206004820152600d60248201526c105b1c9958591e481d9bdd1959609a1b60448201526064016102f3565b335f908152602081905260409020805460ff1916600117905580156103a6576001805481905f9061038390839063ffffffff1661059a565b92506101000a81548163ffffffff021916908363ffffffff1602179055506103e7565b6001805481906004906103c8908390640100000000900463ffffffff1661059a565b92506101000a81548163ffffffff021916908363ffffffff1602179055505b604051811515815233907fa32151c21b193dcf3d43d553597e960d429ef6cafad3492ee4790e41be1ce5209060200160405180910390a250565b6002805461042e90610562565b80601f016020809104026020016040519081016040528092919081815260200182805461045a90610562565b80156104a55780601f1061047c576101008083540402835291602001916104a5565b820191905f5260205f20905b81548152906001019060200180831161048857829003601f168201915b505050505081565b5f602082840312156104bd575f5ffd5b81356001600160a01b03811681146104d3575f5ffd5b9392505050565b5f81518084528060208401602086015e5f602082860101526020601f19601f83011685010191505092915050565b606081525f61051a60608301866104da565b602083019490945250901515604090910152919050565b5f60208284031215610541575f5ffd5b813580151581146104d3575f5ffd5b602081525f6104d360208301846104da565b600181811c9082168061057657607f821691505b60208210810361059457634e487b7160e01b5f52602260045260245ffd5b50919050565b63ffffffff81811683821601908111156105c257634e487b7160e01b5f52601160045260245ffd5b9291505056fea26469706673582212204850f429f8d82da1beb30a11a5b4632260eecf9f0dee783bdc446ac82bc44f2464736f6c634300081c0033","opcodes":"PUSH1 0x80 PUSH1 0x40 MSTORE CALLVALUE DUP1 ISZERO PUSH2 0xF JUMPI PUSH0 PUSH0 REVERT JUMPDEST POP PUSH1 0x40 MLOAD PUSH2 0x974 CODESIZE SUB DUP1 PUSH2 0x974 DUP4 CODECOPY DUP2 ADD PUSH1 0x40 DUP2 SWAP1 MSTORE PUSH2 0x2E SWAP2 PUSH2 0xF1 JUMP JUMPDEST PUSH1 0x1 DUP1 SLOAD PUSH1 0x1 PUSH1 0x1 PUSH1 0x60 SHL SUB AND CALLER PUSH13 0x1000000000000000000000000 MUL OR SWAP1 SSTORE PUSH1 0x2 PUSH2 0x5A DUP4 DUP3 PUSH2 0x229 JUMP JUMPDEST POP PUSH2 0x66 DUP2 PUSH1 0x3C PUSH2 0x2F7 JUMP JUMPDEST PUSH2 0x70 SWAP1 TIMESTAMP PUSH2 0x314 JUMP JUMPDEST PUSH1 0x1 DUP1 SLOAD PUSH4 0xFFFFFFFF PUSH1 0x40 SHL NOT AND PUSH9 0x10000000000000000 PUSH4 0xFFFFFFFF SWAP4 DUP5 AND DUP2 MUL SWAP2 SWAP1 SWAP2 OR SWAP2 DUP3 SWAP1 SSTORE PUSH1 0x40 MLOAD PUSH32 0xE7D3BAF09E7E01AF2690D8AAF441AE74C786CA8C873C36726C38EAF75E0DFEC4 SWAP4 PUSH2 0xCE SWAP4 DUP8 SWAP4 SWAP1 DIV AND SWAP1 PUSH2 0x327 JUMP JUMPDEST PUSH1 0x40 MLOAD DUP1 SWAP2 SUB SWAP1 LOG1 POP POP PUSH2 0x369 JUMP JUMPDEST PUSH4 0x4E487B71 PUSH1 0xE0 SHL PUSH0 MSTORE PUSH1 0x41 PUSH1 0x4 MSTORE PUSH1 0x24 PUSH0 REVERT JUMPDEST PUSH0 PUSH0 PUSH1 0x40 DUP4 DUP6 SUB SLT ISZERO PUSH2 0x102 JUMPI PUSH0 PUSH0 REVERT JUMPDEST DUP3 MLOAD PUSH1 0x1 PUSH1 0x1 PUSH1 0x40 SHL SUB DUP2 GT ISZERO PUSH2 0x117 JUMPI PUSH0 PUSH0 REVERT JUMPDEST DUP4 ADD PUSH1 0x1F DUP2 ADD DUP6 SGT PUSH2 0x127 JUMPI PUSH0 PUSH0 REVERT JUMPDEST DUP1 MLOAD PUSH1 0x1 PUSH1 0x1 PUSH1 0x40 SHL SUB DUP2 GT ISZERO PUSH2 0x140 JUMPI PUSH2 0x140 PUSH2 0xDD JUMP JUMPDEST PUSH1 0x40 MLOAD PUSH1 0x1F DUP3 ADD PUSH1 0x1F NOT SWAP1 DUP2 AND PUSH1 0x3F ADD AND DUP2 ADD PUSH1 0x1 PUSH1 0x1 PUSH1 0x40 SHL SUB DUP2 GT DUP3 DUP3 LT OR ISZERO PUSH2 0x16E JUMPI PUSH2 0x16E PUSH2 0xDD JUMP JUMPDEST PUSH1 0x40 MSTORE DUP2 DUP2 MSTORE DUP3 DUP3 ADD PUSH1 0x20 ADD DUP8 LT ISZERO PUSH2 0x185 JUMPI PUSH0 PUSH0 REVERT JUMPDEST DUP2 PUSH1 0x20 DUP5 ADD PUSH1 0x20 DUP4 ADD MCOPY PUSH0 PUSH1 0x20 SWAP3 DUP3 ADD DUP4 ADD MSTORE SWAP5 ADD MLOAD SWAP4 SWAP6 SWAP4 SWAP5 POP POP POP POP JUMP JUMPDEST PUSH1 0x1 DUP2 DUP2 SHR SWAP1 DUP3 AND DUP1 PUSH2 0x1B9 JUMPI PUSH1 0x7F DUP3 AND SWAP2 POP JUMPDEST PUSH1 0x20 DUP3 LT DUP2 SUB PUSH2 0x1D7 JUMPI PUSH4 0x4E487B71 PUSH1 0xE0 SHL PUSH0 MSTORE PUSH1 0x22 PUSH1 0x4 MSTORE PUSH1 0x24 PUSH0 REVERT JUMPDEST POP SWAP2 SWAP1 POP JUMP JUMPDEST PUSH1 0x1F DUP3 GT ISZERO PUSH2 0x224 JUMPI DUP1 PUSH0 MSTORE PUSH1 0x20 PUSH0 KECCAK256 PUSH1 0x1F DUP5 ADD PUSH1 0x5 SHR DUP2 ADD PUSH1 0x20 DUP6 LT ISZERO PUSH2 0x202 JUMPI POP DUP1 JUMPDEST PUSH1 0x1F DUP5 ADD PUSH1 0x5 SHR DUP3 ADD SWAP2 POP JUMPDEST DUP2 DUP2 LT ISZERO PUSH2 0x221 JUMPI PUSH0 DUP2 SSTORE PUSH1 0x1 ADD PUSH2 0x20E JUMP JUMPDEST POP POP JUMPDEST POP POP POP JUMP JUMPDEST DUP2 MLOAD PUSH1 0x1 PUSH1 0x1 PUSH1 0x40 SHL SUB DUP2 GT ISZERO PUSH2 0x242 JUMPI PUSH2 0x242 PUSH2 0xDD JUMP JUMPDEST PUSH2 0x256 DUP2 PUSH2 0x250 DUP5 SLOAD PUSH2 0x1A5 JUMP JUMPDEST DUP5 PUSH2 0x1DD JUMP JUMPDEST PUSH1 0x20 PUSH1 0x1F DUP3 GT PUSH1 0x1 DUP2 EQ PUSH2 0x288 JUMPI PUSH0 DUP4 ISZERO PUSH2 0x271 JUMPI POP DUP5 DUP3 ADD MLOAD JUMPDEST PUSH0 NOT PUSH1 0x3 DUP6 SWAP1 SHL SHR NOT AND PUSH1 0x1 DUP5 SWAP1 SHL OR DUP5 SSTORE PUSH2 0x221 JUMP JUMPDEST PUSH0 DUP5 DUP2 MSTORE PUSH1 0x20 DUP2 KECCAK256 PUSH1 0x1F NOT DUP6 AND SWAP2 JUMPDEST DUP3 DUP2 LT ISZERO PUSH2 0x2B7 JUMPI DUP8 DUP6 ADD MLOAD DUP3 SSTORE PUSH1 0x20 SWAP5 DUP6 ADD SWAP5 PUSH1 0x1 SWAP1 SWAP3 ADD SWAP2 ADD PUSH2 0x297 JUMP JUMPDEST POP DUP5 DUP3 LT ISZERO PUSH2 0x2D4 JUMPI DUP7 DUP5 ADD MLOAD PUSH0 NOT PUSH1 0x3 DUP8 SWAP1 SHL PUSH1 0xF8 AND SHR NOT AND DUP2 SSTORE JUMPDEST POP POP POP POP PUSH1 0x1 SWAP1 DUP2 SHL ADD SWAP1 SSTORE POP JUMP JUMPDEST PUSH4 0x4E487B71 PUSH1 0xE0 SHL PUSH0 MSTORE PUSH1 0x11 PUSH1 0x4 MSTORE PUSH1 0x24 PUSH0 REVERT JUMPDEST DUP1 DUP3 MUL DUP2 ISZERO DUP3 DUP3 DIV DUP5 EQ OR PUSH2 0x30E JUMPI PUSH2 0x30E PUSH2 0x2E3 JUMP JUMPDEST SWAP3 SWAP2 POP POP JUMP JUMPDEST DUP1 DUP3 ADD DUP1 DUP3 GT ISZERO PUSH2 0x30E JUMPI PUSH2 0x30E PUSH2 0x2E3 JUMP JUMPDEST PUSH1 0x40 DUP2 MSTORE PUSH0 DUP4 MLOAD DUP1 PUSH1 0x40 DUP5 ADD MSTORE DUP1 PUSH1 0x20 DUP7 ADD PUSH1 0x60 DUP6 ADD MCOPY PUSH0 PUSH1 0x60 DUP3 DUP6 ADD ADD MSTORE PUSH1 0x60 PUSH1 0x1F NOT PUSH1 0x1F DUP4 ADD AND DUP5 ADD ADD SWAP2 POP POP PUSH4 0xFFFFFFFF DUP4 AND PUSH1 0x20 DUP4 ADD MSTORE SWAP4 SWAP3 POP POP POP JUMP JUMPDEST PUSH2 0x5FE DUP1 PUSH2 0x376 PUSH0 CODECOPY PUSH0 RETURN INVALID PUSH1 0x80 PUSH1 0x40 MSTORE CALLVALUE DUP1 ISZERO PUSH2 0xF JUMPI PUSH0 PUSH0 REVERT JUMPDEST POP PUSH1 0x4 CALLDATASIZE LT PUSH2 0x9B JUMPI PUSH0 CALLDATALOAD PUSH1 0xE0 SHR DUP1 PUSH4 0x7284E416 GT PUSH2 0x63 JUMPI DUP1 PUSH4 0x7284E416 EQ PUSH2 0x142 JUMPI DUP1 PUSH4 0x83CA5A5B EQ PUSH2 0x157 JUMPI DUP1 PUSH4 0x8DA5CB5B EQ PUSH2 0x183 JUMPI DUP1 PUSH4 0xB5B47F42 EQ PUSH2 0x1B5 JUMPI DUP1 PUSH4 0xFB286C65 EQ PUSH2 0x1CD JUMPI PUSH0 PUSH0 REVERT JUMPDEST DUP1 PUSH4 0x9EEF43E EQ PUSH2 0x9F JUMPI DUP1 PUSH4 0x359AF4B2 EQ PUSH2 0xD6 JUMPI DUP1 PUSH4 0x4717F97C EQ PUSH2 0xED JUMPI DUP1 PUSH4 0x47CF6F76 EQ PUSH2 0x115 JUMPI DUP1 PUSH4 0x4B9F5C98 EQ PUSH2 0x12D JUMPI JUMPDEST PUSH0 PUSH0 REVERT JUMPDEST PUSH2 0xC1 PUSH2 0xAD CALLDATASIZE PUSH1 0x4 PUSH2 0x4AD JUMP JUMPDEST PUSH0 PUSH1 0x20 DUP2 SWAP1 MSTORE SWAP1 DUP2 MSTORE PUSH1 0x40 SWAP1 KECCAK256 SLOAD PUSH1 0xFF AND DUP2 JUMP JUMPDEST PUSH1 0x40 MLOAD SWAP1 ISZERO ISZERO DUP2 MSTORE PUSH1 0x20 ADD JUMPDEST PUSH1 0x40 MLOAD DUP1 SWAP2 SUB SWAP1 RETURN JUMPDEST PUSH2 0xDE PUSH2 0x1DD JUMP JUMPDEST PUSH1 0x40 MLOAD PUSH2 0xCD SWAP4 SWAP3 SWAP2 SWAP1 PUSH2 0x508 JUMP JUMPDEST PUSH1 0x1 SLOAD PUSH1 0x40 DUP1 MLOAD PUSH4 0xFFFFFFFF DUP1 DUP5 AND DUP3 MSTORE PUSH5 0x100000000 SWAP1 SWAP4 DIV SWAP1 SWAP3 AND PUSH1 0x20 DUP4 ADD MSTORE ADD PUSH2 0xCD JUMP JUMPDEST PUSH1 0x1 SLOAD PUSH1 0x1 PUSH1 0x40 SHL SWAP1 DIV PUSH4 0xFFFFFFFF AND TIMESTAMP GT ISZERO PUSH2 0xC1 JUMP JUMPDEST PUSH2 0x140 PUSH2 0x13B CALLDATASIZE PUSH1 0x4 PUSH2 0x531 JUMP JUMPDEST PUSH2 0x298 JUMP JUMPDEST STOP JUMPDEST PUSH2 0x14A PUSH2 0x421 JUMP JUMPDEST PUSH1 0x40 MLOAD PUSH2 0xCD SWAP2 SWAP1 PUSH2 0x550 JUMP JUMPDEST PUSH1 0x1 SLOAD PUSH2 0x16E SWAP1 PUSH1 0x1 PUSH1 0x40 SHL SWAP1 DIV PUSH4 0xFFFFFFFF AND DUP2 JUMP JUMPDEST PUSH1 0x40 MLOAD PUSH4 0xFFFFFFFF SWAP1 SWAP2 AND DUP2 MSTORE PUSH1 0x20 ADD PUSH2 0xCD JUMP JUMPDEST PUSH1 0x1 SLOAD PUSH2 0x19D SWAP1 PUSH1 0x1 PUSH1 0x60 SHL SWAP1 DIV PUSH1 0x1 PUSH1 0x1 PUSH1 0xA0 SHL SUB AND DUP2 JUMP JUMPDEST PUSH1 0x40 MLOAD PUSH1 0x1 PUSH1 0x1 PUSH1 0xA0 SHL SUB SWAP1 SWAP2 AND DUP2 MSTORE PUSH1 0x20 ADD PUSH2 0xCD JUMP JUMPDEST PUSH1 0x1 SLOAD PUSH2 0x16E SWAP1 PUSH5 0x100000000 SWAP1 DIV PUSH4 0xFFFFFFFF AND DUP2 JUMP JUMPDEST PUSH1 0x1 SLOAD PUSH2 0x16E SWAP1 PUSH4 0xFFFFFFFF AND DUP2 JUMP JUMPDEST PUSH1 0x1 SLOAD PUSH1 0x60 SWAP1 PUSH0 SWAP1 DUP2 SWAP1 PUSH1 0x2 SWAP1 PUSH1 0x1 PUSH1 0x40 SHL SWAP1 DIV PUSH4 0xFFFFFFFF AND TIMESTAMP DUP2 LT ISZERO DUP3 DUP1 SLOAD PUSH2 0x207 SWAP1 PUSH2 0x562 JUMP JUMPDEST DUP1 PUSH1 0x1F ADD PUSH1 0x20 DUP1 SWAP2 DIV MUL PUSH1 0x20 ADD PUSH1 0x40 MLOAD SWAP1 DUP2 ADD PUSH1 0x40 MSTORE DUP1 SWAP3 SWAP2 SWAP1 DUP2 DUP2 MSTORE PUSH1 0x20 ADD DUP3 DUP1 SLOAD PUSH2 0x233 SWAP1 PUSH2 0x562 JUMP JUMPDEST DUP1 ISZERO PUSH2 0x27E JUMPI DUP1 PUSH1 0x1F LT PUSH2 0x255 JUMPI PUSH2 0x100 DUP1 DUP4 SLOAD DIV MUL DUP4 MSTORE SWAP2 PUSH1 0x20 ADD SWAP2 PUSH2 0x27E JUMP JUMPDEST DUP3 ADD SWAP2 SWAP1 PUSH0 MSTORE PUSH1 0x20 PUSH0 KECCAK256 SWAP1 JUMPDEST DUP2 SLOAD DUP2 MSTORE SWAP1 PUSH1 0x1 ADD SWAP1 PUSH1 0x20 ADD DUP1 DUP4 GT PUSH2 0x261 JUMPI DUP3 SWAP1 SUB PUSH1 0x1F AND DUP3 ADD SWAP2 JUMPDEST POP SWAP4 SWAP11 PUSH4 0xFFFFFFFF SWAP1 SWAP7 AND SWAP10 POP SWAP4 SWAP8 POP SWAP4 SWAP6 POP POP POP POP POP POP JUMP JUMPDEST PUSH1 0x1 SLOAD PUSH1 0x1 PUSH1 0x40 SHL SWAP1 DIV PUSH4 0xFFFFFFFF AND TIMESTAMP GT ISZERO PUSH2 0x2FC JUMPI PUSH1 0x40 MLOAD PUSH3 0x461BCD PUSH1 0xE5 SHL DUP2 MSTORE PUSH1 0x20 PUSH1 0x4 DUP3 ADD MSTORE PUSH1 0x17 PUSH1 0x24 DUP3 ADD MSTORE PUSH32 0x566F74696E6720706572696F642068617320656E646564000000000000000000 PUSH1 0x44 DUP3 ADD MSTORE PUSH1 0x64 ADD JUMPDEST PUSH1 0x40 MLOAD DUP1 SWAP2 SUB SWAP1 REVERT JUMPDEST CALLER PUSH0 SWAP1 DUP2 MSTORE PUSH1 0x20 DUP2 SWAP1 MSTORE PUSH1 0x40 SWAP1 KECCAK256 SLOAD PUSH1 0xFF AND ISZERO PUSH2 0x34B JUMPI PUSH1 0x40 MLOAD PUSH3 0x461BCD PUSH1 0xE5 SHL DUP2 MSTORE PUSH1 0x20 PUSH1 0x4 DUP3 ADD MSTORE PUSH1 0xD PUSH1 0x24 DUP3 ADD MSTORE PUSH13 0x105B1C9958591E481D9BDD1959 PUSH1 0x9A SHL PUSH1 0x44 DUP3 ADD MSTORE PUSH1 0x64 ADD PUSH2 0x2F3 JUMP JUMPDEST CALLER PUSH0 SWAP1 DUP2 MSTORE PUSH1 0x20 DUP2 SWAP1 MSTORE PUSH1 0x40 SWAP1 KECCAK256 DUP1 SLOAD PUSH1 0xFF NOT AND PUSH1 0x1 OR SWAP1 SSTORE DUP1 ISZERO PUSH2 0x3A6 JUMPI PUSH1 0x1 DUP1 SLOAD DUP2 SWAP1 PUSH0 SWAP1 PUSH2 0x383 SWAP1 DUP4 SWAP1 PUSH4 0xFFFFFFFF AND PUSH2 0x59A JUMP JUMPDEST SWAP3 POP PUSH2 0x100 EXP DUP2 SLOAD DUP2 PUSH4 0xFFFFFFFF MUL NOT AND SWAP1 DUP4 PUSH4 0xFFFFFFFF AND MUL OR SWAP1 SSTORE POP PUSH2 0x3E7 JUMP JUMPDEST PUSH1 0x1 DUP1 SLOAD DUP2 SWAP1 PUSH1 0x4 SWAP1 PUSH2 0x3C8 SWAP1 DUP4 SWAP1 PUSH5 0x100000000 SWAP1 DIV PUSH4 0xFFFFFFFF AND PUSH2 0x59A JUMP JUMPDEST SWAP3 POP PUSH2 0x100 EXP DUP2 SLOAD DUP2 PUSH4 0xFFFFFFFF MUL NOT AND SWAP1 DUP4 PUSH4 0xFFFFFFFF AND MUL OR SWAP1 SSTORE POP JUMPDEST PUSH1 0x40 MLOAD DUP2 ISZERO ISZERO DUP2 MSTORE CALLER SWAP1 PUSH32 0xA32151C21B193DCF3D43D553597E960D429EF6CAFAD3492EE4790E41BE1CE520 SWAP1 PUSH1 0x20 ADD PUSH1 0x40 MLOAD DUP1 SWAP2 SUB SWAP1 LOG2 POP JUMP JUMPDEST PUSH1 0x2 DUP1 SLOAD PUSH2 0x42E SWAP1 PUSH2 0x562 JUMP JUMPDEST DUP1 PUSH1 0x1F ADD PUSH1 0x20 DUP1 SWAP2 DIV MUL PUSH1 0x20 ADD PUSH1 0x40 MLOAD SWAP1 DUP2 ADD PUSH1 0x40 MSTORE DUP1 SWAP3 SWAP2 SWAP1 DUP2 DUP2 MSTORE PUSH1 0x20 ADD DUP3 DUP1 SLOAD PUSH2 0x45A SWAP1 PUSH2 0x562 JUMP JUMPDEST DUP1 ISZERO PUSH2 0x4A5 JUMPI DUP1 PUSH1 0x1F LT PUSH2 0x47C JUMPI PUSH2 0x100 DUP1 DUP4 SLOAD DIV MUL DUP4 MSTORE SWAP2 PUSH1 0x20 ADD SWAP2 PUSH2 0x4A5 JUMP JUMPDEST DUP3 ADD SWAP2 SWAP1 PUSH0 MSTORE PUSH1 0x20 PUSH0 KECCAK256 SWAP1 JUMPDEST DUP2 SLOAD DUP2 MSTORE SWAP1 PUSH1 0x1 ADD SWAP1 PUSH1 0x20 ADD DUP1 DUP4 GT PUSH2 0x488 JUMPI DUP3 SWAP1 SUB PUSH1 0x1F AND DUP3 ADD SWAP2 JUMPDEST POP POP POP POP POP DUP2 JUMP JUMPDEST PUSH0 PUSH1 0x20 DUP3 DUP5 SUB SLT ISZERO PUSH2 0x4BD JUMPI PUSH0 PUSH0 REVERT JUMPDEST DUP2 CALLDATALOAD PUSH1 0x1 PUSH1 0x1 PUSH1 0xA0 SHL SUB DUP2 AND DUP2 EQ PUSH2 0x4D3 JUMPI PUSH0 PUSH0 REVERT JUMPDEST SWAP4 SWAP3 POP POP POP JUMP JUMPDEST PUSH0 DUP2 MLOAD DUP1 DUP5 MSTORE DUP1 PUSH1 0x20 DUP5 ADD PUSH1 0x20 DUP7 ADD MCOPY PUSH0 PUSH1 0x20 DUP3 DUP7 ADD ADD MSTORE PUSH1 0x20 PUSH1 0x1F NOT PUSH1 0x1F DUP4 ADD AND DUP6 ADD ADD SWAP2 POP POP SWAP3 SWAP2 POP POP JUMP JUMPDEST PUSH1 0x60 DUP2 MSTORE PUSH0 PUSH2 0x51A PUSH1 0x60 DUP4 ADD DUP7 PUSH2 0x4DA JUMP JUMPDEST PUSH1 0x20 DUP4 ADD SWAP5 SWAP1 SWAP5 MSTORE POP SWAP1 ISZERO ISZERO PUSH1 0x40 SWAP1 SWAP2 ADD MSTORE SWAP2 SWAP1 POP JUMP JUMPDEST PUSH0 PUSH1 0x20 DUP3 DUP5 SUB SLT ISZERO PUSH2 0x541 JUMPI PUSH0 PUSH0 REVERT JUMPDEST DUP2 CALLDATALOAD DUP1 ISZERO ISZERO DUP2 EQ PUSH2 0x4D3 JUMPI PUSH0 PUSH0 REVERT JUMPDEST PUSH1 0x20 DUP2 MSTORE PUSH0 PUSH2 0x4D3 PUSH1 0x20 DUP4 ADD DUP5 PUSH2 0x4DA JUMP JUMPDEST PUSH1 0x1 DUP2 DUP2 SHR SWAP1 DUP3 AND DUP1 PUSH2 0x576 JUMPI PUSH1 0x7F DUP3 AND SWAP2 POP JUMPDEST PUSH1 0x20 DUP3 LT DUP2 SUB PUSH2 0x594 JUMPI PUSH4 0x4E487B71 PUSH1 0xE0 SHL PUSH0 MSTORE PUSH1 0x22 PUSH1 0x4 MSTORE PUSH1 0x24 PUSH0 REVERT JUMPDEST POP SWAP2 SWAP1 POP JUMP JUMPDEST PUSH4 0xFFFFFFFF DUP2 DUP2 AND DUP4 DUP3 AND ADD SWAP1 DUP2 GT ISZERO PUSH2 0x5C2 JUMPI PUSH4 0x4E487B71 PUSH1 0xE0 SHL PUSH0 MSTORE PUSH1 0x11 PUSH1 0x4 MSTORE PUSH1 0x24 PUSH0 REVERT JUMPDEST SWAP3 SWAP2 POP POP JUMP INVALID LOG2 PUSH5 0x6970667358 0x22 SLT KECCAK256 BASEFEE POP DELEGATECALL 0x29 0xF8 0xD8 0x2D LOG1 0xBE 0xB3 EXP GT 0xA5 0xB4 PUSH4 0x2260EECF SWAP16 0xD 0xEE PUSH25 0x3BDC446AC82BC44F2464736F6C634300081C00330000000000 "},"methodIdentifiers":{"description()":"7284e416","getResults()":"4717f97c","getVotingInfo()":"359af4b2","hasVoted(address)":"09eef43e","isVotingActive()":"47cf6f76","noVotes()":"b5b47f42","owner()":"8da5cb5b","vote(bool)":"4b9f5c98","voteDeadline()":"83ca5a5b","yesVotes()":"fb286c65"}}}}}