{
  "_format": "hh3-artifact-1",
  "contractName": "SimpleVoting",
  "sourceName": "contracts/SimpleVoting.sol",
  "abi": [
    {
      "inputs": [
        {
          "internalType": "string",
          "name": "_description",
          "type": "string"
        },
        {
          "internalType": "uint256",
          "name": "_durationInMinutes",
          "type": "uint256"
        }
      ],
      "stateMutability": "nonpayable",
      "type": "constructor"
    },
    {
      "anonymous": false,
      "inputs": [
        {
          "indexed": true,
          "internalType": "address",
          "name": "voter",
          "type": "address"
        },
        {
          "indexed": false,
          "internalType": "bool",
          "name": "support",
          "type": "bool"
        }
      ],
      "name": "VoteCast",
      "type": "event"
    },
    {
      "anonymous": false,
      "inputs": [
        {
          "indexed": false,
          "internalType": "string",
          "name": "description",
          "type": "string"
        },
        {
          "indexed": false,
          "internalType": "uint256",
          "name": "deadline",
          "type": "uint256"
        }
      ],
      "name": "VotingCreated",
      "type": "event"
    },
    {
      "inputs": [],
      "name": "description",
      "outputs": [
        {
          "internalType": "string",
          "name": "",
          "type": "string"
        }
      ],
      "stateMutability": "view",
      "type": "function"
    },
    {
      "inputs": [],
      "name": "getResults",
      "outputs": [
        {
          "internalType": "uint32",
          "name": "",
          "type": "uint32"
        },
        {
          "internalType": "uint32",
          "name": "",
          "type": "uint32"
        }
      ],
      "stateMutability": "view",
      "type": "function"
    },
    {
      "inputs": [],
      "name": "getVotingInfo",
      "outputs": [
        {
          "internalType": "string",
          "name": "",
          "type": "string"
        },
        {
          "internalType": "uint256",
          "name": "",
          "type": "uint256"
        },
        {
          "internalType": "bool",
          "name": "",
          "type": "bool"
        }
      ],
      "stateMutability": "view",
      "type": "function"
    },
    {
      "inputs": [
        {
          "internalType": "address",
          "name": "",
          "type": "address"
        }
      ],
      "name": "hasVoted",
      "outputs": [
        {
          "internalType": "bool",
          "name": "",
          "type": "bool"
        }
      ],
      "stateMutability": "view",
      "type": "function"
    },
    {
      "inputs": [],
      "name": "isVotingActive",
      "outputs": [
        {
          "internalType": "bool",
          "name": "",
          "type": "bool"
        }
      ],
      "stateMutability": "view",
      "type": "function"
    },
    {
      "inputs": [],
      "name": "noVotes",
      "outputs": [
        {
          "internalType": "uint32",
          "name": "",
          "type": "uint32"
        }
      ],
      "stateMutability": "view",
      "type": "function"
    },
    {
      "inputs": [],
      "name": "owner",
      "outputs": [
        {
          "internalType": "address",
          "name": "",
          "type": "address"
        }
      ],
      "stateMutability": "view",
      "type": "function"
    },
    {
      "inputs": [
        {
          "internalType": "bool",
          "name": "support",
          "type": "bool"
        }
      ],
      "name": "vote",
      "outputs": [],
      "stateMutability": "nonpayable",
      "type": "function"
    },
    {
      "inputs": [],
      "name": "voteDeadline",
      "outputs": [
        {
          "internalType": "uint32",
          "name": "",
          "type": "uint32"
        }
      ],
      "stateMutability": "view",
      "type": "function"
    },
    {
      "inputs": [],
      "name": "yesVotes",
      "outputs": [
        {
          "internalType": "uint32",
          "name": "",
          "type": "uint32"
        }
      ],
      "stateMutability": "view",
      "type": "function"
    }
  ],
  "bytecode": "0x608060405234801561000f575f5ffd5b5060405161097438038061097483398101604081905261002e916100f1565b600180546001600160601b0316336c0100000000000000000000000002179055600261005a8382610229565b5061006681603c6102f7565b6100709042610314565b6001805463ffffffff60401b19166801000000000000000063ffffffff938416810291909117918290556040517fe7d3baf09e7e01af2690d8aaf441ae74c786ca8c873c36726c38eaf75e0dfec4936100ce93879390041690610327565b60405180910390a15050610369565b634e487b7160e01b5f52604160045260245ffd5b5f5f60408385031215610102575f5ffd5b82516001600160401b03811115610117575f5ffd5b8301601f81018513610127575f5ffd5b80516001600160401b03811115610140576101406100dd565b604051601f8201601f19908116603f011681016001600160401b038111828210171561016e5761016e6100dd565b604052818152828201602001871015610185575f5ffd5b8160208401602083015e5f60209282018301529401519395939450505050565b600181811c908216806101b957607f821691505b6020821081036101d757634e487b7160e01b5f52602260045260245ffd5b50919050565b601f82111561022457805f5260205f20601f840160051c810160208510156102025750805b601f840160051c820191505b81811015610221575f815560010161020e565b50505b505050565b81516001600160401b03811115610242576102426100dd565b6102568161025084546101a5565b846101dd565b6020601f821160018114610288575f83156102715750848201515b5f19600385901b1c1916600184901b178455610221565b5f84815260208120601f198516915b828110156102b75787850151825560209485019460019092019101610297565b50848210156102d457868401515f19600387901b60f8161c191681555b50505050600190811b01905550565b634e487b7160e01b5f52601160045260245ffd5b808202811582820484141761030e5761030e6102e3565b92915050565b8082018082111561030e5761030e6102e3565b604081525f83518060408401528060208601606085015e5f606082850101526060601f19601f83011684010191505063ffffffff831660208301529392505050565b6105fe806103765f395ff3fe608060405234801561000f575f5ffd5b506004361061009b575f3560e01c80637284e416116100635780637284e4161461014257806383ca5a5b146101575780638da5cb5b14610183578063b5b47f42146101b5578063fb286c65146101cd575f5ffd5b806309eef43e1461009f578063359af4b2146100d65780634717f97c146100ed57806347cf6f76146101155780634b9f5c981461012d575b5f5ffd5b6100c16100ad3660046104ad565b5f6020819052908152604090205460ff1681565b60405190151581526020015b60405180910390f35b6100de6101dd565b6040516100cd93929190610508565b6001546040805163ffffffff80841682526401000000009093049092166020830152016100cd565b600154600160401b900463ffffffff164211156100c1565b61014061013b366004610531565b610298565b005b61014a610421565b6040516100cd9190610550565b60015461016e90600160401b900463ffffffff1681565b60405163ffffffff90911681526020016100cd565b60015461019d90600160601b90046001600160a01b031681565b6040516001600160a01b0390911681526020016100cd565b60015461016e90640100000000900463ffffffff1681565b60015461016e9063ffffffff1681565b6001546060905f908190600290600160401b900463ffffffff164281101582805461020790610562565b80601f016020809104026020016040519081016040528092919081815260200182805461023390610562565b801561027e5780601f106102555761010080835404028352916020019161027e565b820191905f5260205f20905b81548152906001019060200180831161026157829003601f168201915b50939a63ffffffff90961699509397509395505050505050565b600154600160401b900463ffffffff164211156102fc5760405162461bcd60e51b815260206004820152601760248201527f566f74696e6720706572696f642068617320656e64656400000000000000000060448201526064015b60405180910390fd5b335f9081526020819052604090205460ff161561034b5760405162461bcd60e51b815260206004820152600d60248201526c105b1c9958591e481d9bdd1959609a1b60448201526064016102f3565b335f908152602081905260409020805460ff1916600117905580156103a6576001805481905f9061038390839063ffffffff1661059a565b92506101000a81548163ffffffff021916908363ffffffff1602179055506103e7565b6001805481906004906103c8908390640100000000900463ffffffff1661059a565b92506101000a81548163ffffffff021916908363ffffffff1602179055505b604051811515815233907fa32151c21b193dcf3d43d553597e960d429ef6cafad3492ee4790e41be1ce5209060200160405180910390a250565b6002805461042e90610562565b80601f016020809104026020016040519081016040528092919081815260200182805461045a90610562565b80156104a55780601f1061047c576101008083540402835291602001916104a5565b820191905f5260205f20905b81548152906001019060200180831161048857829003601f168201915b505050505081565b5f602082840312156104bd575f5ffd5b81356001600160a01b03811681146104d3575f5ffd5b9392505050565b5f81518084528060208401602086015e5f602082860101526020601f19601f83011685010191505092915050565b606081525f61051a60608301866104da565b602083019490945250901515604090910152919050565b5f60208284031215610541575f5ffd5b813580151581146104d3575f5ffd5b602081525f6104d360208301846104da565b600181811c9082168061057657607f821691505b60208210810361059457634e487b7160e01b5f52602260045260245ffd5b50919050565b63ffffffff81811683821601908111156105c257634e487b7160e01b5f52601160045260245ffd5b9291505056fea26469706673582212204850f429f8d82da1beb30a11a5b4632260eecf9f0dee783bdc446ac82bc44f2464736f6c634300081c0033",
  "linkReferences": {},
  "deployedLinkReferences": {},
  "immutableReferences": {},
  "inputSourceName": "project/contracts/SimpleVoting.sol",
  "buildInfoId": "solc-0_8_28-80c1488fdc7f91e2ef8e2128a803f0735171eb6e"
}